{
  "contractName": "AccessToken",
  "abi": [
    {
      "constant": false,
      "inputs": [
        {
          "name": "_id",
          "type": "uint256"
        },
        {
          "name": "_allowed",
          "type": "address"
        },
        {
          "name": "_expiration",
          "type": "uint256"
        },
        {
          "name": "_contractHash",
          "type": "bytes32"
        }
      ],
      "name": "issueToken",
      "outputs": [
        {
          "name": "",
          "type": "bool"
        }
      ],
      "payable": false,
      "stateMutability": "nonpayable",
      "type": "function"
    },
    {
      "constant": false,
      "inputs": [
        {
          "name": "_id",
          "type": "uint256"
        },
        {
          "name": "_contractHash",
          "type": "bytes32"
        },
        {
          "name": "_vote",
          "type": "bool"
        }
      ],
      "name": "acceptAccessToken",
      "outputs": [
        {
          "name": "",
          "type": "bool"
        }
      ],
      "payable": false,
      "stateMutability": "nonpayable",
      "type": "function"
    },
    {
      "constant": false,
      "inputs": [
        {
          "name": "_issuer",
          "type": "address"
        },
        {
          "name": "_allowed",
          "type": "address"
        }
      ],
      "name": "checkAllowance",
      "outputs": [
        {
          "name": "",
          "type": "bool"
        }
      ],
      "payable": false,
      "stateMutability": "nonpayable",
      "type": "function"
    },
    {
      "constant": false,
      "inputs": [],
      "name": "getAllIssuedTokens",
      "outputs": [
        {
          "components": [
            {
              "name": "id",
              "type": "uint256"
            },
            {
              "name": "issuer",
              "type": "address"
            },
            {
              "name": "allowed",
              "type": "address"
            },
            {
              "name": "contractHash",
              "type": "bytes32"
            },
            {
              "name": "issuedAt",
              "type": "uint256"
            },
            {
              "name": "expiresAt",
              "type": "uint256"
            },
            {
              "name": "allowedConfirmation",
              "type": "bool"
            }
          ],
          "name": "",
          "type": "tuple[]"
        }
      ],
      "payable": false,
      "stateMutability": "nonpayable",
      "type": "function"
    }
  ],
  "bytecode": "0x608060405234801561001057600080fd5b50610fec806100206000396000f3fe608060405260043610610062576000357c0100000000000000000000000000000000000000000000000000000000900463ffffffff1680632faecd14146100675780638b099b23146100a4578063a7a2aa2f146100e1578063d2e49fb21461010c575b600080fd5b34801561007357600080fd5b5061008e60048036036100899190810190610c84565b610149565b60405161009b9190610eae565b60405180910390f35b3480156100b057600080fd5b506100cb60048036036100c69190810190610be5565b6102cd565b6040516100d89190610eae565b60405180910390f35b3480156100ed57600080fd5b506100f66103ec565b6040516101039190610e8c565b60405180910390f35b34801561011857600080fd5b50610133600480360361012e9190810190610c21565b610578565b6040516101409190610eae565b60405180910390f35b6000610153610b26565b60008086815260200190815260200160002060e06040519081016040529081600082015481526020016001820160009054906101000a900473ffffffffffffffffffffffffffffffffffffffff1673ffffffffffffffffffffffffffffffffffffffff1673ffffffffffffffffffffffffffffffffffffffff1681526020016002820160009054906101000a900473ffffffffffffffffffffffffffffffffffffffff1673ffffffffffffffffffffffffffffffffffffffff1673ffffffffffffffffffffffffffffffffffffffff1681526020016003820154815260200160048201548152602001600582015481526020016006820160009054906101000a900460ff16151515158152505090503273ffffffffffffffffffffffffffffffffffffffff16816040015173ffffffffffffffffffffffffffffffffffffffff161415156102a057600080fd5b8381606001511415156102b257600080fd5b828160c0019015159081151581525050829150509392505050565b60006102d7610b26565b6102e1848461096a565b60e06040519081016040529081600082015481526020016001820160009054906101000a900473ffffffffffffffffffffffffffffffffffffffff1673ffffffffffffffffffffffffffffffffffffffff1673ffffffffffffffffffffffffffffffffffffffff1681526020016002820160009054906101000a900473ffffffffffffffffffffffffffffffffffffffff1673ffffffffffffffffffffffffffffffffffffffff1673ffffffffffffffffffffffffffffffffffffffff1681526020016003820154815260200160048201548152602001600582015481526020016006820160009054906101000a900460ff16151515158152505090508060c0015191505092915050565b6060600160003273ffffffffffffffffffffffffffffffffffffffff1673ffffffffffffffffffffffffffffffffffffffff168152602001908152602001600020805480602002602001604051908101604052809291908181526020016000905b8282101561056f578382906000526020600020906007020160e06040519081016040529081600082015481526020016001820160009054906101000a900473ffffffffffffffffffffffffffffffffffffffff1673ffffffffffffffffffffffffffffffffffffffff1673ffffffffffffffffffffffffffffffffffffffff1681526020016002820160009054906101000a900473ffffffffffffffffffffffffffffffffffffffff1673ffffffffffffffffffffffffffffffffffffffff1673ffffffffffffffffffffffffffffffffffffffff1681526020016003820154815260200160048201548152602001600582015481526020016006820160009054906101000a900460ff1615151515815250508152602001906001019061044d565b50505050905090565b6000610582610b26565b60e0604051908101604052808781526020013273ffffffffffffffffffffffffffffffffffffffff1681526020018673ffffffffffffffffffffffffffffffffffffffff1681526020018481526020014381526020018543018152602001600015158152509050806000808881526020019081526020016000206000820151816000015560208201518160010160006101000a81548173ffffffffffffffffffffffffffffffffffffffff021916908373ffffffffffffffffffffffffffffffffffffffff16021790555060408201518160020160006101000a81548173ffffffffffffffffffffffffffffffffffffffff021916908373ffffffffffffffffffffffffffffffffffffffff160217905550606082015181600301556080820151816004015560a0820151816005015560c08201518160060160006101000a81548160ff021916908315150217905550905050600160003273ffffffffffffffffffffffffffffffffffffffff1673ffffffffffffffffffffffffffffffffffffffff16815260200190815260200160002081908060018154018082558091505090600182039060005260206000209060070201600090919290919091506000820151816000015560208201518160010160006101000a81548173ffffffffffffffffffffffffffffffffffffffff021916908373ffffffffffffffffffffffffffffffffffffffff16021790555060408201518160020160006101000a81548173ffffffffffffffffffffffffffffffffffffffff021916908373ffffffffffffffffffffffffffffffffffffffff160217905550606082015181600301556080820151816004015560a0820151816005015560c08201518160060160006101000a81548160ff021916908315150217905550505050600260008673ffffffffffffffffffffffffffffffffffffffff1673ffffffffffffffffffffffffffffffffffffffff16815260200190815260200160002081908060018154018082558091505090600182039060005260206000209060070201600090919290919091506000820151816000015560208201518160010160006101000a81548173ffffffffffffffffffffffffffffffffffffffff021916908373ffffffffffffffffffffffffffffffffffffffff16021790555060408201518160020160006101000a81548173ffffffffffffffffffffffffffffffffffffffff021916908373ffffffffffffffffffffffffffffffffffffffff160217905550606082015181600301556080820151816004015560a0820151816005015560c08201518160060160006101000a81548160ff0219169083151502179055505050506001915050949350505050565b600080600260008473ffffffffffffffffffffffffffffffffffffffff1673ffffffffffffffffffffffffffffffffffffffff1681526020019081526020016000208054905090506000811115156109f7576040517f08c379a00000000000000000000000000000000000000000000000000000000081526004016109ee90610ec9565b60405180910390fd5b60008090505b81811015610ae4576000600260008673ffffffffffffffffffffffffffffffffffffffff1673ffffffffffffffffffffffffffffffffffffffff16815260200190815260200160002082815481101515610a5357fe5b906000526020600020906007020190508573ffffffffffffffffffffffffffffffffffffffff168160010160009054906101000a900473ffffffffffffffffffffffffffffffffffffffff1673ffffffffffffffffffffffffffffffffffffffff16148015610ac6575043816005015411155b15610ad657809350505050610b20565b5080806001019150506109fd565b506040517f08c379a0000000000000000000000000000000000000000000000000000000008152600401610b1790610ee9565b60405180910390fd5b92915050565b60e06040519081016040528060008152602001600073ffffffffffffffffffffffffffffffffffffffff168152602001600073ffffffffffffffffffffffffffffffffffffffff1681526020016000801916815260200160008152602001600081526020016000151581525090565b6000610ba18235610f80565b905092915050565b6000610bb58235610f92565b905092915050565b6000610bc98235610f9e565b905092915050565b6000610bdd8235610fa8565b905092915050565b60008060408385031215610bf857600080fd5b6000610c0685828601610b95565b9250506020610c1785828601610b95565b9150509250929050565b60008060008060808587031215610c3757600080fd5b6000610c4587828801610bd1565b9450506020610c5687828801610b95565b9350506040610c6787828801610bd1565b9250506060610c7887828801610bbd565b91505092959194509250565b600080600060608486031215610c9957600080fd5b6000610ca786828701610bd1565b9350506020610cb886828701610bbd565b9250506040610cc986828701610ba9565b9150509250925092565b610cdc81610f2e565b82525050565b6000610ced82610f16565b808452602084019350610cff83610f09565b60005b82811015610d3157610d15868351610def565b610d1e82610f21565b915060e086019550600181019050610d02565b50849250505092915050565b610d4681610f40565b82525050565b610d5581610f4c565b82525050565b6000601182527f4e6f2069737375656420746f6b656e73210000000000000000000000000000006020830152604082019050919050565b6000602582527f4e6f20746f6b656e7320776572652069737375656420627920746865205f697360208301527f73756572210000000000000000000000000000000000000000000000000000006040830152606082019050919050565b60e082016000820151610e056000850182610e7d565b506020820151610e186020850182610cd3565b506040820151610e2b6040850182610cd3565b506060820151610e3e6060850182610d4c565b506080820151610e516080850182610e7d565b5060a0820151610e6460a0850182610e7d565b5060c0820151610e7760c0850182610d3d565b50505050565b610e8681610f76565b82525050565b60006020820190508181036000830152610ea68184610ce2565b905092915050565b6000602082019050610ec36000830184610d3d565b92915050565b60006020820190508181036000830152610ee281610d5b565b9050919050565b60006020820190508181036000830152610f0281610d92565b9050919050565b6000602082019050919050565b600081519050919050565b6000602082019050919050565b6000610f3982610f56565b9050919050565b60008115159050919050565b6000819050919050565b600073ffffffffffffffffffffffffffffffffffffffff82169050919050565b6000819050919050565b6000610f8b82610f56565b9050919050565b60008115159050919050565b6000819050919050565b600081905091905056fea265627a7a723058205da7c847297a1d06369a2393c20a5d42118f6af37f11737437dc1b9f8b0a788a6c6578706572696d656e74616cf50037",
  "source": "pragma solidity >=0.5 <0.6.0;\npragma experimental ABIEncoderV2;\n\ncontract AccessToken {\n  \n  struct AccessToken {\n    uint256 id;\n    address issuer;\n    address allowed;\n\n    bytes32 contractHash;\n    uint issuedAt;\n    uint expiresAt;\n\n    bool allowedConfirmation;\n  }\n\n  mapping(uint256 => AccessToken) accessTokens;\n  mapping(address => AccessToken[]) issuersTokens;\n  mapping(address => AccessToken[]) allowedTokens;\n  \n  /**\n    * @dev Issue token to another user\n    * @param _allowed User that is beeing issued an access token\n    * @param _expiration Number of blocks that token is valid\n    * @param _contractHash Hash of the agreement between users\n    * @return true if the token is generated successfully\n   */\n  function issueToken\n    (uint256 _id, address _allowed, uint _expiration, bytes32 _contractHash)\n    public\n    returns (bool)\n    {\n      AccessToken memory _token = AccessToken(_id, tx.origin, _allowed, _contractHash, block.number, block.number + _expiration, false);\n      accessTokens[_id] = _token;\n      issuersTokens[tx.origin].push(_token);\n      allowedTokens[_allowed].push(_token);\n\n\n      return true;\n    }\n\n\n  function acceptAccessToken(\n    uint256 _id, bytes32 _contractHash, bool _vote)\n    public\n    returns (bool)\n    {\n      AccessToken memory _token = accessTokens[_id];\n      require(_token.allowed == tx.origin);\n      require(_token.contractHash == _contractHash);\n\n      _token.allowedConfirmation = _vote;\n\n      return _vote;\n    }\n\n  /**\n    * @dev Check if the user has the access rights to see data of another user\n    * @param _issuer This users data is trying to be accessed\n    * @return true if sender has rights to access _issuers data\n   */\n  function checkAllowance\n    (address _issuer, address _allowed)\n    public\n    returns (bool)\n  {\n\n    AccessToken memory _token = getIssuedToken(_issuer, _allowed);\n    return _token.allowedConfirmation;\n    \n  }\n\n\n  function getAllIssuedTokens()\n    public\n    returns (AccessToken[] memory) \n    {\n      return issuersTokens[tx.origin];\n    }\n\n\n  /**\n    * @dev Get token issued to the calling user\n    * @param _issuer User that issued the token\n    * @return AccessToken if there is a valid token issued, otherwise it reverts\n   */\n  function getIssuedToken\n    (address _issuer, address _allowed)\n    internal\n    returns (AccessToken storage)\n    {\n      uint allowedTokensLength = allowedTokens[_allowed].length;\n\n      require(allowedTokensLength > 0, \"No issued tokens!\");\n\n      /*\n       *  Iterate over available tokens and\n       *  find the token issued by the _issuer.\n       */\n      for(uint i=0; i < allowedTokensLength; i++){\n        AccessToken storage _token = allowedTokens[_allowed][i];\n        if(_token.issuer == _issuer && _token.expiresAt <= block.number){\n          return _token;\n        }\n      }\n\n      revert(\"No tokens were issued by the _issuer!\");\n    }\n}",
  "sourcePath": "/home/domagoj/ATB/ATB-Hackathon-White-Walkers/blockchain/contracts/AccessToken.sol",
  "compiler": {
    "name": "solc",
    "version": "0.5.0+commit.1d4f565a.Emscripten.clang"
  },
  "schemaVersion": "3.0.6",
  "updatedAt": "2019-04-06T13:43:14.093Z",
  "devdoc": {
    "methods": {
      "checkAllowance(address,address)": {
        "details": "Check if the user has the access rights to see data of another user",
        "params": {
          "_issuer": "This users data is trying to be accessed"
        },
        "return": "true if sender has rights to access _issuers data"
      },
      "issueToken(uint256,address,uint256,bytes32)": {
        "details": "Issue token to another user",
        "params": {
          "_allowed": "User that is beeing issued an access token",
          "_contractHash": "Hash of the agreement between users",
          "_expiration": "Number of blocks that token is valid"
        },
        "return": "true if the token is generated successfully"
      }
    }
  },
  "userdoc": {
    "methods": {}
  }
}