{
  "contractName": "TestContract",
  "abi": [
    {
      "inputs": [],
      "payable": false,
      "stateMutability": "nonpayable",
      "type": "constructor"
    },
    {
      "constant": false,
      "inputs": [
        {
          "name": "_value",
          "type": "uint8"
        }
      ],
      "name": "setValue",
      "outputs": [],
      "payable": false,
      "stateMutability": "nonpayable",
      "type": "function"
    },
    {
      "constant": true,
      "inputs": [],
      "name": "getValue",
      "outputs": [
        {
          "name": "",
          "type": "uint8"
        }
      ],
      "payable": false,
      "stateMutability": "view",
      "type": "function"
    }
  ],
  "bytecode": "0x608060405234801561001057600080fd5b50336000806101000a81548173ffffffffffffffffffffffffffffffffffffffff021916908373ffffffffffffffffffffffffffffffffffffffff16021790555061017b806100606000396000f3fe60806040526004361061004c576000357c0100000000000000000000000000000000000000000000000000000000900463ffffffff16806320965255146100515780634c111ff814610082575b600080fd5b34801561005d57600080fd5b506100666100c0565b604051808260ff1660ff16815260200191505060405180910390f35b34801561008e57600080fd5b506100be600480360360208110156100a557600080fd5b81019080803560ff1690602001909291905050506100d6565b005b60008060149054906101000a900460ff16905090565b6000809054906101000a900473ffffffffffffffffffffffffffffffffffffffff1673ffffffffffffffffffffffffffffffffffffffff163373ffffffffffffffffffffffffffffffffffffffff1614151561013157600080fd5b80600060146101000a81548160ff021916908360ff1602179055505056fea165627a7a72305820c9fc20c4f94f19f1448ab8bc5c96c4ca305418883cb547bb9851791588aeabd70029",
  "source": "pragma solidity >=0.5 <0.6.0;\n\ncontract TestContract {\n\n  address owner;\n  uint8 value;\n  constructor() public{\n    owner = msg.sender;\n  }\n\n  modifier onlyOwner(){\n    require(msg.sender == owner);\n    _;  \n  }\n\n  function setValue(uint8 _value) \n    public\n    onlyOwner\n    {\n      value = _value;\n    }\n\n  function getValue()\n    public\n    view\n    returns(uint8)\n    {\n      return value;\n    }\n\n\n\n\n}",
  "sourcePath": "/home/domagoj/ATB/ATB-Hackathon-White-Walkers/blockchain/contracts/TestContract.sol",
  "compiler": {
    "name": "solc",
    "version": "0.5.0+commit.1d4f565a.Emscripten.clang"
  },
  "schemaVersion": "3.0.6",
  "updatedAt": "2019-04-06T13:43:14.099Z",
  "devdoc": {
    "methods": {}
  },
  "userdoc": {
    "methods": {}
  }
}